{"abi":[{"type":"constructor","inputs":[{"name":"entranceFee","type":"uint256","internalType":"uint256"},{"name":"interval","type":"uint256","internalType":"uint256"},{"name":"vrfCoordinator","type":"address","internalType":"address"},{"name":"gasLane","type":"bytes32","internalType":"bytes32"},{"name":"subscriptionId","type":"uint256","internalType":"uint256"},{"name":"callbackGasLimit","type":"uint32","internalType":"uint32"},{"name":"numWords","type":"uint32","internalType":"uint32"}],"stateMutability":"nonpayable"},{"type":"function","name":"acceptOwnership","inputs":[],"outputs":[],"stateMutability":"nonpayable"},{"type":"function","name":"enterRaffle","inputs":[],"outputs":[],"stateMutability":"payable"},{"type":"function","name":"getEntranceFee","inputs":[],"outputs":[{"name":"","type":"uint256","internalType":"uint256"}],"stateMutability":"view"},{"type":"function","name":"owner","inputs":[],"outputs":[{"name":"","type":"address","internalType":"address"}],"stateMutability":"view"},{"type":"function","name":"pickWinner","inputs":[],"outputs":[],"stateMutability":"nonpayable"},{"type":"function","name":"rawFulfillRandomWords","inputs":[{"name":"requestId","type":"uint256","internalType":"uint256"},{"name":"randomWords","type":"uint256[]","internalType":"uint256[]"}],"outputs":[],"stateMutability":"nonpayable"},{"type":"function","name":"s_vrfCoordinator","inputs":[],"outputs":[{"name":"","type":"address","internalType":"contract IVRFCoordinatorV2Plus"}],"stateMutability":"view"},{"type":"function","name":"setCoordinator","inputs":[{"name":"_vrfCoordinator","type":"address","internalType":"address"}],"outputs":[],"stateMutability":"nonpayable"},{"type":"function","name":"transferOwnership","inputs":[{"name":"to","type":"address","internalType":"address"}],"outputs":[],"stateMutability":"nonpayable"},{"type":"event","name":"CoordinatorSet","inputs":[{"name":"vrfCoordinator","type":"address","indexed":false,"internalType":"address"}],"anonymous":false},{"type":"event","name":"OwnershipTransferRequested","inputs":[{"name":"from","type":"address","indexed":true,"internalType":"address"},{"name":"to","type":"address","indexed":true,"internalType":"address"}],"anonymous":false},{"type":"event","name":"OwnershipTransferred","inputs":[{"name":"from","type":"address","indexed":true,"internalType":"address"},{"name":"to","type":"address","indexed":true,"internalType":"address"}],"anonymous":false},{"type":"event","name":"RaffleEntered","inputs":[{"name":"player","type":"address","indexed":true,"internalType":"address"}],"anonymous":false},{"type":"error","name":"OnlyCoordinatorCanFulfill","inputs":[{"name":"have","type":"address","internalType":"address"},{"name":"want","type":"address","internalType":"address"}]},{"type":"error","name":"OnlyOwnerOrCoordinator","inputs":[{"name":"have","type":"address","internalType":"address"},{"name":"owner","type":"address","internalType":"address"},{"name":"coordinator","type":"address","internalType":"address"}]},{"type":"error","name":"Raffle__SendMoreToEnterRaffle","inputs":[]},{"type":"error","name":"ZeroAddress","inputs":[]}],"bytecode":{"object":"0x610140604052600163ffffffff166101009063ffffffff16815250348015610025575f5ffd5b5060405161182938038061182983398181016040528101906100479190610469565b8433805f5f73ffffffffffffffffffffffffffffffffffffffff168273ffffffffffffffffffffffffffffffffffffffff16036100b9576040517f08c379a00000000000000000000000000000000000000000000000000000000081526004016100b090610560565b60405180910390fd5b815f5f6101000a81548173ffffffffffffffffffffffffffffffffffffffff021916908373ffffffffffffffffffffffffffffffffffffffff1602179055505f73ffffffffffffffffffffffffffffffffffffffff168173ffffffffffffffffffffffffffffffffffffffff161461013b5761013a8161024160201b60201c565b5b5050505f73ffffffffffffffffffffffffffffffffffffffff168173ffffffffffffffffffffffffffffffffffffffff16036101a3576040517fd92e233d00000000000000000000000000000000000000000000000000000000815260040160405180910390fd5b8060025f6101000a81548173ffffffffffffffffffffffffffffffffffffffff021916908373ffffffffffffffffffffffffffffffffffffffff1602179055505086608081815250508560a081815250508360e081815250508260c081815250508163ffffffff166101208163ffffffff16815250508063ffffffff166101008163ffffffff168152505042600481905550505050505050506105e6565b3373ffffffffffffffffffffffffffffffffffffffff168173ffffffffffffffffffffffffffffffffffffffff16036102af576040517f08c379a00000000000000000000000000000000000000000000000000000000081526004016102a6906105c8565b60405180910390fd5b8060015f6101000a81548173ffffffffffffffffffffffffffffffffffffffff021916908373ffffffffffffffffffffffffffffffffffffffff1602179055508073ffffffffffffffffffffffffffffffffffffffff165f5f9054906101000a900473ffffffffffffffffffffffffffffffffffffffff1673ffffffffffffffffffffffffffffffffffffffff167fed8889f560326eb138920d842192f0eb3dd22b4f139c87a2c57538e05bae127860405160405180910390a350565b5f5ffd5b5f819050919050565b61038281610370565b811461038c575f5ffd5b50565b5f8151905061039d81610379565b92915050565b5f73ffffffffffffffffffffffffffffffffffffffff82169050919050565b5f6103cc826103a3565b9050919050565b6103dc816103c2565b81146103e6575f5ffd5b50565b5f815190506103f7816103d3565b92915050565b5f819050919050565b61040f816103fd565b8114610419575f5ffd5b50565b5f8151905061042a81610406565b92915050565b5f63ffffffff82169050919050565b61044881610430565b8114610452575f5ffd5b50565b5f815190506104638161043f565b92915050565b5f5f5f5f5f5f5f60e0888a0312156104845761048361036c565b5b5f6104918a828b0161038f565b97505060206104a28a828b0161038f565b96505060406104b38a828b016103e9565b95505060606104c48a828b0161041c565b94505060806104d58a828b0161038f565b93505060a06104e68a828b01610455565b92505060c06104f78a828b01610455565b91505092959891949750929550565b5f82825260208201905092915050565b7f43616e6e6f7420736574206f776e657220746f207a65726f00000000000000005f82015250565b5f61054a601883610506565b915061055582610516565b602082019050919050565b5f6020820190508181035f8301526105778161053e565b9050919050565b7f43616e6e6f74207472616e7366657220746f2073656c660000000000000000005f82015250565b5f6105b2601783610506565b91506105bd8261057e565b602082019050919050565b5f6020820190508181035f8301526105df816105a6565b9050919050565b60805160a05160c05160e05161010051610120516111f56106345f395f61043d01525f61046901525f6103e601525f61040c01525f6103a101525f81816101b801526102a201526111f55ff3fe608060405260043610610085575f3560e01c806379ba50971161005857806379ba5097146100fb5780638da5cb5b146101115780638ea981171461013b5780639eccacf614610163578063f2fde38b1461018d57610085565b806309bc33a7146100895780631fe543e3146100b35780632cfcc539146100db5780635d495aea146100e5575b5f5ffd5b348015610094575f5ffd5b5061009d6101b5565b6040516100aa9190610b8e565b60405180910390f35b3480156100be575f5ffd5b506100d960048036038101906100d49190610c3a565b6101dc565b005b6100e36102a0565b005b3480156100f0575f5ffd5b506100f961039f565b005b348015610106575f5ffd5b5061010f610552565b005b34801561011c575f5ffd5b506101256106e1565b6040516101329190610cd6565b60405180910390f35b348015610146575f5ffd5b50610161600480360381019061015c9190610d19565b610708565b005b34801561016e575f5ffd5b506101776108e5565b6040516101849190610d9f565b60405180910390f35b348015610198575f5ffd5b506101b360048036038101906101ae9190610d19565b61090a565b005b5f7f0000000000000000000000000000000000000000000000000000000000000000905090565b60025f9054906101000a900473ffffffffffffffffffffffffffffffffffffffff1673ffffffffffffffffffffffffffffffffffffffff163373ffffffffffffffffffffffffffffffffffffffff1614610290573360025f9054906101000a900473ffffffffffffffffffffffffffffffffffffffff166040517f1cf993f4000000000000000000000000000000000000000000000000000000008152600401610287929190610db8565b60405180910390fd5b61029b83838361091e565b505050565b7f00000000000000000000000000000000000000000000000000000000000000003410156102fa576040517f3038c00a00000000000000000000000000000000000000000000000000000000815260040160405180910390fd5b600333908060018154018082558091505060019003905f5260205f20015f9091909190916101000a81548173ffffffffffffffffffffffffffffffffffffffff021916908373ffffffffffffffffffffffffffffffffffffffff1602179055503373ffffffffffffffffffffffffffffffffffffffff167f634f3211e3a4e43fee5a21ad9f87ca153b300fc78b1c557a2057dbe9c63bcb4760405160405180910390a2565b7f0000000000000000000000000000000000000000000000000000000000000000600454426103ce9190610e0c565b10156103d8575f5ffd5b5f6040518060c001604052807f000000000000000000000000000000000000000000000000000000000000000081526020017f00000000000000000000000000000000000000000000000000000000000000008152602001600361ffff1681526020017f000000000000000000000000000000000000000000000000000000000000000063ffffffff1681526020017f000000000000000000000000000000000000000000000000000000000000000063ffffffff1681526020016104ac60405180602001604052805f1515815250610923565b81525090505f60025f9054906101000a900473ffffffffffffffffffffffffffffffffffffffff1673ffffffffffffffffffffffffffffffffffffffff16639b1c385e836040518263ffffffff1660e01b815260040161050c9190610f96565b6020604051808303815f875af1158015610528573d5f5f3e3d5ffd5b505050506040513d601f19601f8201168201806040525081019061054c9190610fca565b90505050565b60015f9054906101000a900473ffffffffffffffffffffffffffffffffffffffff1673ffffffffffffffffffffffffffffffffffffffff163373ffffffffffffffffffffffffffffffffffffffff16146105e1576040517f08c379a00000000000000000000000000000000000000000000000000000000081526004016105d89061104f565b60405180910390fd5b5f5f5f9054906101000a900473ffffffffffffffffffffffffffffffffffffffff169050335f5f6101000a81548173ffffffffffffffffffffffffffffffffffffffff021916908373ffffffffffffffffffffffffffffffffffffffff1602179055505f60015f6101000a81548173ffffffffffffffffffffffffffffffffffffffff021916908373ffffffffffffffffffffffffffffffffffffffff1602179055503373ffffffffffffffffffffffffffffffffffffffff168173ffffffffffffffffffffffffffffffffffffffff167f8be0079c531659141344cd1fd0a4f28419497f9722a3daafe3b4186f6b6457e060405160405180910390a350565b5f5f5f9054906101000a900473ffffffffffffffffffffffffffffffffffffffff16905090565b6107106106e1565b73ffffffffffffffffffffffffffffffffffffffff163373ffffffffffffffffffffffffffffffffffffffff1614158015610798575060025f9054906101000a900473ffffffffffffffffffffffffffffffffffffffff1673ffffffffffffffffffffffffffffffffffffffff163373ffffffffffffffffffffffffffffffffffffffff1614155b1561080657336107a66106e1565b60025f9054906101000a900473ffffffffffffffffffffffffffffffffffffffff166040517f061db9c10000000000000000000000000000000000000000000000000000000081526004016107fd9392919061106d565b60405180910390fd5b5f73ffffffffffffffffffffffffffffffffffffffff168173ffffffffffffffffffffffffffffffffffffffff160361086b576040517fd92e233d00000000000000000000000000000000000000000000000000000000815260040160405180910390fd5b8060025f6101000a81548173ffffffffffffffffffffffffffffffffffffffff021916908373ffffffffffffffffffffffffffffffffffffffff1602179055507fd1a6a14209a385a964d036e404cb5cfb71f4000cdb03c9366292430787261be6816040516108da9190610cd6565b60405180910390a150565b60025f9054906101000a900473ffffffffffffffffffffffffffffffffffffffff1681565b6109126109bb565b61091b81610a4b565b50565b505050565b60607f92fd13387c7fe7befbc38d303d6468778fb9731bc4583f17d92989c6fcfdeaaa8260405160240161095791906110d6565b604051602081830303815290604052907bffffffffffffffffffffffffffffffffffffffffffffffffffffffff19166020820180517bffffffffffffffffffffffffffffffffffffffffffffffffffffffff83818316178352505050509050919050565b5f5f9054906101000a900473ffffffffffffffffffffffffffffffffffffffff1673ffffffffffffffffffffffffffffffffffffffff163373ffffffffffffffffffffffffffffffffffffffff1614610a49576040517f08c379a0000000000000000000000000000000000000000000000000000000008152600401610a4090611139565b60405180910390fd5b565b3373ffffffffffffffffffffffffffffffffffffffff168173ffffffffffffffffffffffffffffffffffffffff1603610ab9576040517f08c379a0000000000000000000000000000000000000000000000000000000008152600401610ab0906111a1565b60405180910390fd5b8060015f6101000a81548173ffffffffffffffffffffffffffffffffffffffff021916908373ffffffffffffffffffffffffffffffffffffffff1602179055508073ffffffffffffffffffffffffffffffffffffffff165f5f9054906101000a900473ffffffffffffffffffffffffffffffffffffffff1673ffffffffffffffffffffffffffffffffffffffff167fed8889f560326eb138920d842192f0eb3dd22b4f139c87a2c57538e05bae127860405160405180910390a350565b5f819050919050565b610b8881610b76565b82525050565b5f602082019050610ba15f830184610b7f565b92915050565b5f5ffd5b5f5ffd5b610bb881610b76565b8114610bc2575f5ffd5b50565b5f81359050610bd381610baf565b92915050565b5f5ffd5b5f5ffd5b5f5ffd5b5f5f83601f840112610bfa57610bf9610bd9565b5b8235905067ffffffffffffffff811115610c1757610c16610bdd565b5b602083019150836020820283011115610c3357610c32610be1565b5b9250929050565b5f5f5f60408486031215610c5157610c50610ba7565b5b5f610c5e86828701610bc5565b935050602084013567ffffffffffffffff811115610c7f57610c7e610bab565b5b610c8b86828701610be5565b92509250509250925092565b5f73ffffffffffffffffffffffffffffffffffffffff82169050919050565b5f610cc082610c97565b9050919050565b610cd081610cb6565b82525050565b5f602082019050610ce95f830184610cc7565b92915050565b610cf881610cb6565b8114610d02575f5ffd5b50565b5f81359050610d1381610cef565b92915050565b5f60208284031215610d2e57610d2d610ba7565b5b5f610d3b84828501610d05565b91505092915050565b5f819050919050565b5f610d67610d62610d5d84610c97565b610d44565b610c97565b9050919050565b5f610d7882610d4d565b9050919050565b5f610d8982610d6e565b9050919050565b610d9981610d7f565b82525050565b5f602082019050610db25f830184610d90565b92915050565b5f604082019050610dcb5f830185610cc7565b610dd86020830184610cc7565b9392505050565b7f4e487b71000000000000000000000000000000000000000000000000000000005f52601160045260245ffd5b5f610e1682610b76565b9150610e2183610b76565b9250828203905081811115610e3957610e38610ddf565b5b92915050565b5f819050919050565b610e5181610e3f565b82525050565b610e6081610b76565b82525050565b5f61ffff82169050919050565b610e7c81610e66565b82525050565b5f63ffffffff82169050919050565b610e9a81610e82565b82525050565b5f81519050919050565b5f82825260208201905092915050565b8281835e5f83830152505050565b5f601f19601f8301169050919050565b5f610ee282610ea0565b610eec8185610eaa565b9350610efc818560208601610eba565b610f0581610ec8565b840191505092915050565b5f60c083015f830151610f255f860182610e48565b506020830151610f386020860182610e57565b506040830151610f4b6040860182610e73565b506060830151610f5e6060860182610e91565b506080830151610f716080860182610e91565b5060a083015184820360a0860152610f898282610ed8565b9150508091505092915050565b5f6020820190508181035f830152610fae8184610f10565b905092915050565b5f81519050610fc481610baf565b92915050565b5f60208284031215610fdf57610fde610ba7565b5b5f610fec84828501610fb6565b91505092915050565b5f82825260208201905092915050565b7f4d7573742062652070726f706f736564206f776e6572000000000000000000005f82015250565b5f611039601683610ff5565b915061104482611005565b602082019050919050565b5f6020820190508181035f8301526110668161102d565b9050919050565b5f6060820190506110805f830186610cc7565b61108d6020830185610cc7565b61109a6040830184610cc7565b949350505050565b5f8115159050919050565b6110b6816110a2565b82525050565b602082015f8201516110d05f8501826110ad565b50505050565b5f6020820190506110e95f8301846110bc565b92915050565b7f4f6e6c792063616c6c61626c65206279206f776e6572000000000000000000005f82015250565b5f611123601683610ff5565b915061112e826110ef565b602082019050919050565b5f6020820190508181035f83015261115081611117565b9050919050565b7f43616e6e6f74207472616e7366657220746f2073656c660000000000000000005f82015250565b5f61118b601783610ff5565b915061119682611157565b602082019050919050565b5f6020820190508181035f8301526111b88161117f565b905091905056fea2646970667358221220e207a3f39d83b1304c2ca199a3857983eb88e9e726d89ee0191f017c4d3775b364736f6c634300081e0033","linkReferences":{}},"methodIdentifiers":{"acceptOwnership()":"79ba5097","enterRaffle()":"2cfcc539","getEntranceFee()":"09bc33a7","owner()":"8da5cb5b","pickWinner()":"5d495aea","rawFulfillRandomWords(uint256,uint256[])":"1fe543e3","s_vrfCoordinator()":"9eccacf6","setCoordinator(address)":"8ea98117","transferOwnership(address)":"f2fde38b"},"id":8}